{
  "contractName": "Mall",
  "abi": [
    {
      "constant": true,
      "inputs": [
        {
          "name": "",
          "type": "uint256"
        }
      ],
      "name": "products",
      "outputs": [
        {
          "name": "id",
          "type": "uint256"
        },
        {
          "name": "seller",
          "type": "address"
        },
        {
          "name": "buyer",
          "type": "address"
        },
        {
          "name": "name",
          "type": "string"
        },
        {
          "name": "description",
          "type": "string"
        }
      ],
      "payable": false,
      "stateMutability": "view",
      "type": "function"
    },
    {
      "inputs": [],
      "payable": false,
      "stateMutability": "nonpayable",
      "type": "constructor"
    },
    {
      "constant": false,
      "inputs": [
        {
          "name": "_name",
          "type": "string"
        },
        {
          "name": "_description",
          "type": "string"
        }
      ],
      "name": "sellProduct",
      "outputs": [],
      "payable": false,
      "stateMutability": "nonpayable",
      "type": "function"
    },
    {
      "constant": true,
      "inputs": [],
      "name": "getNumberOfProducts",
      "outputs": [
        {
          "name": "",
          "type": "uint256"
        }
      ],
      "payable": false,
      "stateMutability": "view",
      "type": "function"
    }
  ],
  "bytecode": "0x60806040526000805534801561001457600080fd5b5061008f6040518060400160405280600481526020017f42616c6c000000000000000000000000000000000000000000000000000000008152506040518060400160405280600581526020017f566f6c657900000000000000000000000000000000000000000000000000000081525061010e60201b60201c565b6101096040518060400160405280600681526020017f42616c6c203100000000000000000000000000000000000000000000000000008152506040518060400160405280600581526020017f566f6c657900000000000000000000000000000000000000000000000000000081525061010e60201b60201c565b61036e565b61011661026e565b6040518060a0016040528060005481526020013373ffffffffffffffffffffffffffffffffffffffff168152602001600073ffffffffffffffffffffffffffffffffffffffff1681526020018481526020018381525090508060016000805481526020019081526020016000206000820151816000015560208201518160010160006101000a81548173ffffffffffffffffffffffffffffffffffffffff021916908373ffffffffffffffffffffffffffffffffffffffff16021790555060408201518160020160006101000a81548173ffffffffffffffffffffffffffffffffffffffff021916908373ffffffffffffffffffffffffffffffffffffffff16021790555060608201518160030190805190602001906102379291906102c9565b5060808201518160040190805190602001906102549291906102c9565b509050506000808154809291906001019190505550505050565b6040518060a0016040528060008152602001600073ffffffffffffffffffffffffffffffffffffffff168152602001600073ffffffffffffffffffffffffffffffffffffffff16815260200160608152602001606081525090565b828054600181600116156101000203166002900490600052602060002090601f016020900481019282601f1061030a57805160ff1916838001178555610338565b82800160010185558215610338579182015b8281111561033757825182559160200191906001019061031c565b5b5090506103459190610349565b5090565b61036b91905b8082111561036757600081600090555060010161034f565b5090565b90565b6107718061037d6000396000f3fe608060405234801561001057600080fd5b50600436106100415760003560e01c80633ffd81fb1461004657806366223e51146100645780637acc0b20146101b6575b600080fd5b61004e610336565b6040518082815260200191505060405180910390f35b6101b46004803603604081101561007a57600080fd5b810190808035906020019064010000000081111561009757600080fd5b8201836020820111156100a957600080fd5b803590602001918460018302840111640100000000831117156100cb57600080fd5b91908080601f016020809104026020016040519081016040528093929190818152602001838380828437600081840152601f19601f8201169050808301925050505050505091929192908035906020019064010000000081111561012e57600080fd5b82018360208201111561014057600080fd5b8035906020019184600183028401116401000000008311171561016257600080fd5b91908080601f016020809104026020016040519081016040528093929190818152602001838380828437600081840152601f19601f82011690508083019250505050505050919291929050505061033f565b005b6101e2600480360360208110156101cc57600080fd5b810190808035906020019092919050505061049f565b604051808681526020018573ffffffffffffffffffffffffffffffffffffffff1673ffffffffffffffffffffffffffffffffffffffff1681526020018473ffffffffffffffffffffffffffffffffffffffff1673ffffffffffffffffffffffffffffffffffffffff1681526020018060200180602001838103835285818151815260200191508051906020019080838360005b83811015610290578082015181840152602081019050610275565b50505050905090810190601f1680156102bd5780820380516001836020036101000a031916815260200191505b50838103825284818151815260200191508051906020019080838360005b838110156102f65780820151818401526020810190506102db565b50505050905090810190601f1680156103235780820380516001836020036101000a031916815260200191505b5097505050505050505060405180910390f35b60008054905090565b610347610645565b6040518060a0016040528060005481526020013373ffffffffffffffffffffffffffffffffffffffff168152602001600073ffffffffffffffffffffffffffffffffffffffff1681526020018481526020018381525090508060016000805481526020019081526020016000206000820151816000015560208201518160010160006101000a81548173ffffffffffffffffffffffffffffffffffffffff021916908373ffffffffffffffffffffffffffffffffffffffff16021790555060408201518160020160006101000a81548173ffffffffffffffffffffffffffffffffffffffff021916908373ffffffffffffffffffffffffffffffffffffffff16021790555060608201518160030190805190602001906104689291906106a0565b5060808201518160040190805190602001906104859291906106a0565b509050506000808154809291906001019190505550505050565b60016020528060005260406000206000915090508060000154908060010160009054906101000a900473ffffffffffffffffffffffffffffffffffffffff16908060020160009054906101000a900473ffffffffffffffffffffffffffffffffffffffff1690806003018054600181600116156101000203166002900480601f01602080910402602001604051908101604052809291908181526020018280546001816001161561010002031660029004801561059d5780601f106105725761010080835404028352916020019161059d565b820191906000526020600020905b81548152906001019060200180831161058057829003601f168201915b505050505090806004018054600181600116156101000203166002900480601f01602080910402602001604051908101604052809291908181526020018280546001816001161561010002031660029004801561063b5780601f106106105761010080835404028352916020019161063b565b820191906000526020600020905b81548152906001019060200180831161061e57829003601f168201915b5050505050905085565b6040518060a0016040528060008152602001600073ffffffffffffffffffffffffffffffffffffffff168152602001600073ffffffffffffffffffffffffffffffffffffffff16815260200160608152602001606081525090565b828054600181600116156101000203166002900490600052602060002090601f016020900481019282601f106106e157805160ff191683800117855561070f565b8280016001018555821561070f579182015b8281111561070e5782518255916020019190600101906106f3565b5b50905061071c9190610720565b5090565b61074291905b8082111561073e576000816000905550600101610726565b5090565b9056fea165627a7a72305820da1f9fbcc9f1798a471021a39ffe5c3224a785a0e8ad20591ff64a83cf3937850029",
  "source": "pragma solidity >=0.4.21 <0.6.0;\r\n\r\ncontract Mall {\r\n\r\n\r\n    constructor() public {\r\n        sellProduct(\"Ball\", \"Voley\");\r\n        sellProduct(\"Ball 1\", \"Voley\");\r\n    }\r\n\r\n    struct Product {\r\n        uint id;\r\n        address payable seller;\r\n        address buyer;\r\n        string name;\r\n        string description;\r\n    }\r\n\r\n    uint productCounter = 0;\r\n    mapping (uint => Product) public products;        \r\n\r\n    function sellProduct(string memory _name, string memory _description) public{\r\n        \r\n        Product memory newProduct = Product({\r\n            id: productCounter,\r\n            seller: msg.sender,\r\n            buyer: address(0x0),\r\n            name: _name,\r\n            description: _description\r\n        });\r\n                \r\n        products[productCounter] = newProduct;\r\n        productCounter++;        \r\n    }\r\n\r\n    function getNumberOfProducts() public view returns (uint) {\r\n        return productCounter;\r\n    }\r\n   \r\n}",
  "sourcePath": "C:/Users/caiqu/Documents/Projetos/eth-mall/contracts/Mall.sol",
  "compiler": {
    "name": "solc",
    "version": "0.5.8+commit.23d335f2.Emscripten.clang"
  },
  "schemaVersion": "3.0.15",
  "updatedAt": "2019-09-15T23:34:35.809Z",
  "devdoc": {
    "methods": {}
  },
  "userdoc": {
    "methods": {}
  }
}