{
  "contractName": "Mall",
  "abi": [
    {
      "constant": true,
      "inputs": [
        {
          "name": "",
          "type": "uint256"
        }
      ],
      "name": "products",
      "outputs": [
        {
          "name": "id",
          "type": "uint256"
        },
        {
          "name": "seller",
          "type": "address"
        },
        {
          "name": "buyer",
          "type": "address"
        },
        {
          "name": "name",
          "type": "string"
        },
        {
          "name": "description",
          "type": "string"
        },
        {
          "name": "price",
          "type": "uint256"
        }
      ],
      "payable": false,
      "stateMutability": "view",
      "type": "function"
    },
    {
      "constant": false,
      "inputs": [
        {
          "name": "_name",
          "type": "string"
        },
        {
          "name": "_description",
          "type": "string"
        },
        {
          "name": "_price",
          "type": "uint256"
        }
      ],
      "name": "sellProduct",
      "outputs": [],
      "payable": false,
      "stateMutability": "nonpayable",
      "type": "function"
    },
    {
      "constant": true,
      "inputs": [],
      "name": "getNumberOfProducts",
      "outputs": [
        {
          "name": "",
          "type": "uint256"
        }
      ],
      "payable": false,
      "stateMutability": "view",
      "type": "function"
    },
    {
      "constant": false,
      "inputs": [
        {
          "name": "_id",
          "type": "uint256"
        }
      ],
      "name": "buyProduct",
      "outputs": [],
      "payable": true,
      "stateMutability": "payable",
      "type": "function"
    }
  ],
  "bytecode": "0x608060405234801561001057600080fd5b506106ef806100206000396000f3fe60806040526004361061003f5760003560e01c80633ffd81fb146100445780637acc0b201461006b5780637d33f01e146101b35780638642269e146102f1575b600080fd5b34801561005057600080fd5b5061005961030e565b60408051918252519081900360200190f35b34801561007757600080fd5b506100956004803603602081101561008e57600080fd5b5035610315565b60405180878152602001866001600160a01b03166001600160a01b03168152602001856001600160a01b03166001600160a01b031681526020018060200180602001848152602001838103835286818151815260200191508051906020019080838360005b838110156101125781810151838201526020016100fa565b50505050905090810190601f16801561013f5780820380516001836020036101000a031916815260200191505b50838103825285518152855160209182019187019080838360005b8381101561017257818101518382015260200161015a565b50505050905090810190601f16801561019f5780820380516001836020036101000a031916815260200191505b509850505050505050505060405180910390f35b3480156101bf57600080fd5b506102ef600480360360608110156101d657600080fd5b8101906020810181356401000000008111156101f157600080fd5b82018360208201111561020357600080fd5b8035906020019184600183028401116401000000008311171561022557600080fd5b91908080601f016020809104026020016040519081016040528093929190818152602001838380828437600092019190915250929594936020810193503591505064010000000081111561027857600080fd5b82018360208201111561028a57600080fd5b803590602001918460018302840111640100000000831117156102ac57600080fd5b91908080601f016020809104026020016040519081016040528093929190818152602001838380828437600092019190915250929550509135925061046a915050565b005b6102ef6004803603602081101561030757600080fd5b503561053e565b6000545b90565b60016020818152600092835260409283902080548184015460028084015460038501805489516101009982161599909902600019011692909204601f810187900487028801870190985287875292966001600160a01b03928316969290931694919290918301828280156103ca5780601f1061039f576101008083540402835291602001916103ca565b820191906000526020600020905b8154815290600101906020018083116103ad57829003601f168201915b5050505060048301805460408051602060026001851615610100026000190190941693909304601f810184900484028201840190925281815294959493509083018282801561045a5780601f1061042f5761010080835404028352916020019161045a565b820191906000526020600020905b81548152906001019060200180831161043d57829003601f168201915b5050505050908060050154905086565b6104726105e3565b506040805160c08101825260008054808352336020808501918252848601848152606086018a8152608087018a905260a0870189905293855260018083529690942085518155915195820180546001600160a01b03199081166001600160a01b0398891617909155935160028301805490951696169590951790925551805192938493610505926003850192019061062b565b506080820151805161052191600484019160209091019061062b565b5060a0919091015160059091015550506000805460010190555050565b600081815260016020526040902060028101546001600160a01b03161561056457600080fd5b60018101546001600160a01b031633141561057e57600080fd5b8060050154341461058e57600080fd5b6002810180546001600160a01b0319163317905560018101546040516001600160a01b0391909116903480156108fc02916000818181858888f193505050501580156105de573d6000803e3d6000fd5b505050565b6040518060c001604052806000815260200160006001600160a01b0316815260200160006001600160a01b031681526020016060815260200160608152602001600081525090565b828054600181600116156101000203166002900490600052602060002090601f016020900481019282601f1061066c57805160ff1916838001178555610699565b82800160010185558215610699579182015b8281111561069957825182559160200191906001019061067e565b506106a59291506106a9565b5090565b61031291905b808211156106a557600081556001016106af56fea165627a7a723058208d17e3f41b42df7fde7278b6b0ed0406126aadf43c49f64061f5a65c1876dbbe0029",
  "source": "pragma solidity >=0.4.21 <0.6.0;\r\n\r\ncontract Mall {\r\n    struct Product {\r\n        uint id;\r\n        address payable seller;\r\n        address buyer;\r\n        string name;\r\n        string description;\r\n        uint price;\r\n    }\r\n\r\n    uint productCounter;\r\n    mapping (uint => Product) public products;        \r\n\r\n    function sellProduct(string memory _name, string memory _description, uint _price) public{\r\n        \r\n        Product memory newProduct = Product({\r\n            id: productCounter,\r\n            seller: msg.sender,\r\n            buyer: address(0x0),\r\n            name: _name,\r\n            description: _description,\r\n            price: _price\r\n        });\r\n                \r\n        products[productCounter] = newProduct;\r\n        productCounter++;        \r\n    }\r\n\r\n    function getNumberOfProducts() public view returns (uint) {\r\n        return productCounter;\r\n    }\r\n   \r\n    function buyProduct (uint _id)  payable public{\r\n      Product storage product = products[_id];\r\n      require(product.buyer == address(0x0)); \r\n      require(msg.sender != product.seller); \r\n      require(msg.value == product.price);\r\n      product.buyer = msg.sender;\r\n      product.seller.transfer(msg.value);\r\n    }\r\n}",
  "sourcePath": "C:/Users/caiqu/Documents/Projetos/eth-mall/contracts/Mall.sol",
  "compiler": {
    "name": "solc",
    "version": "0.5.8+commit.23d335f2.Emscripten.clang"
  },
  "schemaVersion": "3.0.15",
  "updatedAt": "2019-09-08T23:47:36.120Z",
  "devdoc": {
    "methods": {}
  },
  "userdoc": {
    "methods": {}
  }
}